:100000000C9462000C948A000C948A000C948A0070
:100010000C948A000C948A000C948A000C948A0038
:100020000C948A000C948A000C948A000C948A0028
:100030000C948A000C948A000C948A000C948A0018
:100040000C94F8010C948A000C9480040C94C30462
:100050000C948A000C948A000C948A000C948A00F8
:100060000C948A000C948A00000000070002010032
:100070000003040600000000000000000102040864
:100080001020408001020408102001020408102002
:10009000040404040404040402020202020203032E
:1000A00003030303000000002300260029000000D2
:1000B0000000250028002B0000000000240027007D
:1000C0002A007F0511241FBECFEFD8E0DEBFCDBFD1
:1000D00011E0A0E0B1E0E0ECFCE002C005900D9280
:1000E000AE31B107D9F721E0AEE1B1E001C01D9218
:1000F000AA3DB207E1F710E0C4ECD0E004C02297BB
:10010000FE010E944B06C23CD107C9F70E94A6001F
:100110000C945E060C94000080E00C942D0161E0CC
:10012000809107010E94FA0261E0809103010E9420
:10013000FA0260E0809105010E94FA0240E052EC70
:1001400061E070E08CE291E00C94FE040E946A0190
:1001500078940E9496020E948F00CAEBD4E00E941D
:100160008C002097E1F30E94BA04F9CF60E08091FF
:1001700003010E94330382E090E00E948B0261E061
:10018000809103010E9433038AE090E00E948B0279
:1001900060E0809103010E94330328EB3BE040E0E4
:1001A00050E061E0809105010E94690361157105CD
:1001B0008105910549F0609321017093220180939C
:1001C0002301909324010CC080E197E2A0E0B0E00D
:1001D0008093210190932201A0932301B0932401E5
:1001E000609121017091220180912301909124015D
:1001F00008950E94B60060912101709122018091C2
:100200002301909124012AE330E040E050E00E9475
:100210001F0620931F01309320014093210150932A
:10022000220108950E94F90080911F019091200100
:10023000A0912101B09122014597A105B10514F0CB
:1002400061E001C060E0809107010E94330368EC27
:1002500070E080E090E00C9465021F93CF93DF93F1
:100260001FB7F894C82FDD27C7FDD095C952DE4FC0
:100270009881911102C00E948F0188818F3F11F0F7
:100280008F5F88838091D801882329F01FBFDF9179
:10029000CF911F910895809100018F3FB9F3209174
:1002A0001E01992787FD9095FC01E65FFE4F308186
:1002B000231760F7FC01E75FFE4F8081822B80935C
:1002C0001E010E947E010E946C0187FFFCCFDECFE1
:1002D000F894FFCFE0ED08957894E82FEE0FFF0B30
:1002E000E55FFE4F0190F081E02D309709F0099510
:1002F000F8940E94BC018091D90108958091000179
:10030000E82FFF27E7FDF095EE5FFE4F9081909379
:1003100000019091010190838093010108959091D3
:100320000001282F332727FD3095F901E65FFE4FA6
:100330007081EFEF9F3F81F0492F552747FD509582
:10034000DA01A65FBE4F6C91671730F0DA01AE5F3D
:10035000BE4FE92F9C91EECFEF3F39F0FF27E7FD2D
:10036000F095EE5FFE4F808302C080930001F9019B
:10037000EE5FFE4F9083089580910101282F33276F
:1003800027FD3095F901E952FE4F908191509083FD
:10039000F901E75FFE4F5081509540911E014523C2
:1003A00040931E01F901EE5FFE4F20812093010171
:1003B00091110E948F01809100018F3F59F020918F
:1003C0001E01992787FD9095FC01E65FFE4F308165
:1003D000231710F08FEF09C0FC01E75FFE4F80810B
:1003E000822B80931E010E947E018093D901089583
:1003F0001F920F920FB60F9211242F933F938F935A
:100400009F93AF93BF938091240190912501A09178
:100410002601B09127013091230123E0230F2D37CE
:1004200020F40196A11DB11D05C026E8230F0296F8
:10043000A11DB11D209323018093240190932501D8
:10044000A0932601B0932701809128019091290162
:10045000A0912A01B0912B010196A11DB11D80939D
:10046000280190932901A0932A01B0932B01BF91F9
:10047000AF919F918F913F912F910F900FBE0F9051
:100480001F9018953FB7F894809128019091290109
:10049000A0912A01B0912B0126B5A89B05C02F3F42
:1004A00019F00196A11DB11D3FBF6627782F892F36
:1004B0009A2F620F711D811D911D42E0660F771FFB
:1004C000881F991F4A95D1F70895CF92DF92EF9236
:1004D000FF92CF93DF936B017C010E944202EB01FC
:1004E000C114D104E104F10479F00E9442026C1BB2
:1004F0007D0B683E7340A0F381E0C81AD108E10883
:10050000F108C851DC4FECCFDF91CF91FF90EF9015
:10051000DF90CF9008950197009739F0880F991FC9
:10052000880F991F02970197F1F70895789484B581
:10053000826084BD84B5816084BD85B5826085BDDF
:1005400085B5816085BDEEE6F0E0808181608083C5
:10055000E1E8F0E0108280818260808380818160A8
:100560008083E0E8F0E0808181608083E1EBF0E06F
:10057000808184608083E0EBF0E080818160808313
:10058000EAE7F0E0808184608083808182608083FC
:100590008081816080838081806880831092C10027
:1005A0000895833081F028F4813099F08230A1F0F1
:1005B00008958630A9F08730B9F08430D1F4809165
:1005C00080008F7D03C0809180008F7780938000B2
:1005D000089584B58F7702C084B58F7D84BD08955A
:1005E0008091B0008F7703C08091B0008F7D8093A1
:1005F000B0000895CF93DF9390E0FC01E458FF4FE3
:100600002491FC01E057FF4F8491882349F190E049
:10061000880F991FFC01E854FF4FA591B4918255B2
:100620009F4FFC01C591D4919FB7611108C0F89408
:100630008C91209582238C93888182230AC062301A
:1006400051F4F8948C91322F309583238C938881C8
:10065000822B888304C0F8948C91822B8C939FBF4B
:10066000DF91CF9108950F931F93CF93DF931F9244
:10067000CDB7DEB7282F30E0F901E859FF4F84915C
:10068000F901E458FF4F1491F901E057FF4F04912D
:100690000023C9F0882321F069830E94D102698177
:1006A000E02FF0E0EE0FFF1FE255FF4FA591B49150
:1006B0009FB7F8948C91611103C01095812301C0FC
:1006C000812B8C939FBF0F90DF91CF911F910F9142
:1006D0000895CF92DF92EF92FF920F931F93CF93E3
:1006E000DF9390E0FC01E458FF4FD491FC01E05708
:1006F000FF4F7491611102C0C0E001C0CD2FDA013B
:10070000C901BF70672F70E0660F771F6C557F4F70
:1007100000E010E09801FB01E590F490F7014081C2
:100720004D234C131EC0680179014FEFC41AD40A3F
:10073000E40AF40A081719072A073B0709F442C01C
:1007400097018601E8CF68017901FFEFCF1ADF0A30
:10075000EF0AFF0A081719072A073B0799F19701C3
:100760008601FB01E590F490F70140814D234C1385
:10077000EACF801B910BA20BB30B20E030E0A90164
:10078000FB01E590F490F701F080FD22FC120AC015
:10079000281739074A075B07A9F02F5F3F4F4F4FD4
:1007A0005F4FEECFA5E1B0E00E943E06605F7F4F55
:1007B0008F4F9F4F24E096958795779567952A955B
:1007C000D1F703C060E070E0CB01DF91CF911F91C2
:1007D0000F91FF90EF90DF90CF900895FC0124855A
:1007E0003585F901E05CFF4F80819181329620814F
:1007F0003181821B930B8F7399270895FC018485A7
:100800009585FC01E05CFF4F40815181329620814B
:1008100031814217530741F00190F081E02DE80F3C
:10082000F91F808190E008958FEF9FEF0895FC01FC
:1008300084859585FC01E05CFF4F408151813296B3
:10084000208131814217530779F0A081B181A80F2F
:10085000B91F8C91208131812F5F3F4F2F73332738
:100860003183208390E008958FEF9FEF0895FC017E
:1008700081A1882329F0A489B5898C9186FFFBCFBB
:1008800011A20895CF93DF93FC0126853785D90106
:10089000A05CBF4F8D919C91119701968F73992702
:1008A000E901CE5BDF4F4881598184179507D9F361
:1008B0000D90BC91A02DA20FB31F6C93A685B78598
:1008C000A05CBF4F11969C938E93A689B7892C91FB
:1008D00081E090E0078C02C0880F991F0A94E2F72C
:1008E000282B2C9381E081A30488F589E02D808159
:1008F0008064808381E090E0DF91CF910895089536
:100900001F920F920FB60F9211242F933F934F9384
:100910008F939F93EF93FF938091C00082FD1CC043
:100920004091C6008091D2019091D30101968F73BE
:1009300099272091D4013091D5018217930771F046
:10094000E091D201F091D301EE56FE4F4083909397
:10095000D3018093D20102C08091C600FF91EF9134
:100960009F918F914F913F912F910F900FBE0F90BC
:100970001F9018958CE291E00E94EE03892B11F0F4
:100980000C947F0408951F920F920FB60F921124BA
:100990002F933F938F939F93EF93FF9320918E011B
:1009A00030918F0180919001909191012817390722
:1009B00031F48091C1008F7D8093C10014C0E0911B
:1009C0009001F0919101E25BFE4F208180919001B6
:1009D0009091910101968F73992790939101809343
:1009E00090012093C600FF91EF919F918F913F91CD
:1009F0002F910F900FBE0F901F901895CF92DF92FE
:100A0000EF92FF92CF93DF93EC016A017B014115D6
:100A100081EE580761057105F9F0EC89FD8981E0E7
:100A200090E008A002C0880F991F0A94E2F7808323
:100A300060E079E08DE390E0A70196010E94FD055A
:100A40002150310941095109569547953795279508
:100A5000211580E1380798F0EC89FD89108260E863
:100A600074E88EE190E0A70196010E94FD052150F7
:100A70003109410951095695479537952795E889D8
:100A8000F9893083EA89FB89208319A2EE89FF89DD
:100A9000408181E090E09C010C8C02C0220F331F4A
:100AA0000A94E2F7422B4083EE89FF8940819C0142
:100AB0000D8C02C0220F331F0A94E2F7422B4083B1
:100AC000EE89FF8940819C010E8C02C0220F331FEA
:100AD0000A94E2F7422B4083EE89FF8920810F8C34
:100AE00002C0880F991F0A94E2F7809582238083C1
:100AF000DF91CF91FF90EF90DF90CF90089510920B
:100B00002F0110922E0188EE93E0A0E0B0E08093D8
:100B1000300190933101A0933201B093330181E110
:100B200091E090932D0180932C0182E991E09093C4
:100B30003901809338018EE491E090933B018093DA
:100B40003A0185EC90E090933D0180933C0184EC68
:100B500090E090933F0180933E0180EC90E0909371
:100B600041018093400181EC90E090934301809398
:100B7000420182EC90E0909345018093440186EC21
:100B800090E0909347018093460184E08093480170
:100B900083E08093490187E080934A0185E0809358
:100BA0004B0181E080934C010895CF92DF92EF9248
:100BB000FF920F931F93CF93DF936C017A01EB01A8
:100BC000E60EF71E00E010E0CE15DF0561F069913A
:100BD000D601ED91FC910190F081E02DC6010995BF
:100BE000080F191FF1CFC801DF91CF911F910F910D
:100BF000FF90EF90DF90CF900895A1E21A2EAA1BEC
:100C0000BB1BFD010DC0AA1FBB1FEE1FFF1FA217BC
:100C1000B307E407F50720F0A21BB30BE40BF50BB9
:100C2000661F771F881F991F1A9469F76095709542
:100C3000809590959B01AC01BD01CF010895052ED3
:100C400097FB1EF400940E94360657FD07D00E94C1
:100C5000FD0507FC03D04EF40C94360650954095E4
:100C6000309521953F4F4F4F5F4F08959095809558
:100C7000709561957F4F8F4F9F4F08950E944F064B
:100C8000A59F900DB49F900DA49F800D911D1124E0
:100C90000895EE0FFF1F0590F491E02D0994A29F97
:100CA000B001B39FC001A39F700D811D1124911D40
:100CB000B29F700D811D1124911D0895F894FFCFEE
:100CC000FFFFFF090008000D0001011201000000F4
:0E0CD000004204D505EE031704FE03370400AE
:00000001FF
